S00E0000752D626F6F742E73726563C0
S3158020000005A00100424C3333EABEADDEEBBEADDE49
S315802000100000208000000000ECBEADDE11A00100B3
S31580200020F32010C0173103000331416906C019A09F
S31580200030000000002A82AE849301000097320300DC
S3158020004083B2427F7390521073104010C152056361
S315802000501B0333825203337153000A85EF402035C8
S315802000602A842A81EF00401F9742030083B2828C24
S3158020007005432FA96208631E0900EF40003423B48C
S31580200080911423B041149732030083B222622FA0A9
S31580200090020A9732030083B2626105432FA3620C62
S315802000A0E31E03FEA28105433313430083B3011568
S315802000B0B3E3630023B871142FA0020A631B0910CF
S315802000C0EF00803EEF00603E13050000173F0300DF
S315802000D0033F4F7A029F2A89AE89328A4A81973294
S315802000E0030083B2226FB30F5A406386420B52833A
S315802000F0173E0300033E0E73330E5E40B383C20168
S3158020010003BF0200A1022330E3012103E3CA72FE6A
S3158020011017330300033383559733030083B3037F59
S31580200120630B73067E93FE93A9A8033F03FF0D4EB0
S31580200130631BCF01033E83FE033F83FF7E9F7E9E0C
S315802001402330EE013DA8973E030083BEAE7CFE9E03
S31580200150033F03FF93520F02137FFF0F094E631253
S31580200160CF03033E83FE614FB382E203B38A5E00F0
S31580200170833283FF03BF8A00169F7E9F7E9E233015
S31580200180EE016103E3D363FA9732030083B2826A76
S31580200190FE92739052109732030083B2A268FE9229
S315802001A017330300033383597E936387620023B01A
S315802001B00200A102E3CD62FEEF00C02AEF00E02A12
S315802001C09732030083B28259B38EF2014E85D2854F
S30F802001D0828E73005010F5BF0000E8
S30B802001DAFFFFFFFFFFFF7F
S315802001E05D71A2E086E426FCEFD0C0792A8411EDE9
S315802001F02400A6856D45EFC04062226509EDA6855F
S315802002006D45EFC0806122650DE9A6602285066472
S31580200210E27461618280130600020C08EFD0C079F7
S3158020022079FD930540064808EF60623E69D9996753
S3158020023073A0071073503000C9BF130600020C0844
S31580200240EFD0807779F1930560064808EF60223CED
S3158020025079FD65BF6FD0007382800000117106E43E
S315802002600AE80EEC12F016F41AF81EFCA2E0A6E4B8
S31580200270AAE8AEECB2F0B6F4BAF8BEFC42E146E5A6
S315802002804AE94EED52F156F55AF95EFDE2E1E6E590
S31580200290EAE9EEEDF2F1F6F5FAF9FEFD7325201482
S315802002A0F3251014732630148A86EF00C03173101C
S315802002B01514A260E2610272A2724273E27306642E
S315802002C0A6644665E6650676A6764677E6770A6864
S315802002D0AA684A69EA690A7AAA7A4A7BEA7B0E6C14
S315802002E0AE6C4E6DEE6D0E7EAE7E4E7FEE7F4261A3
S315802002F01161730020106F40427D6F40720403B5F8
S315802003008106FD57819363F3A7003E858280411144
S3158020031006E4EF00C02AEF008015A2600145410166
S3158020032082809385F503137505FC93F505FC63653B
S31580200330B5000B00900182800B00A50213050504F1
S31580200340FDB79385F503137505FC93F505FC636569
S31580200350B5000B00900182800B00B50213050504C1
S31580200360FDB7411106E48337851081CFEF80F04EAB
S3158020037011CD179502001305E505EF702215EF5074
S31580200380F24D179502001305E506C5BFA26041010F
S3158020039082808280011122E826E406EC4AE093F4EA
S315802003A005200339850E2A8497C502009385051C6E
S315802003B089C497950200938565FE179502001305DB
S315802003C065FFEF70A21017330300033323340293A3
S315802003D013050060EFC00024EFF07FF33705000E91
S315802003E013056502EF00102B99EC8337841081CF9B
S315802003F0833504104264E260A26403B50114CA877F
S31580200400026905618287E2604264A26402690561AD
S315802004108280011122E806EC9377050CAA857D540B
S3158020042081EB93F70510368589CBEFF09FF3014456
S31580200430E260228542640561828013F4056001C4EE
S31580200440EFF05FF5EDB72EE436E0EFF09FF1A26591
S315802004500265EFF03FF4E9BF03B6810685668A859B
S315802004606F50926F0F10000082808280E5BF41110D
S3158020047006E4EFF03FFFA260173303000333033512
S31580200480410102830111AA9522E806EC2A842EE4F2
S31580200490EFF0DFFD22854264A265E2601733030018
S315802004A00333432D05610283828082808280797125
S315802004B022F026EC4AE806F44EE4BD472E843289A3
S315802004C0B68463E5A70E0E059707030093878759A1
S315802004D03E950C611785020013054572EF60127FE9
S315802004E09064CA86A2851785020013052575EF605C
S315802004F0F27D6382010203B78100058B09CF83B524
S3158020050081099064178502001305C5750D8EB30584
S31580200510B440EF60B27B7998835704000D47094930
S315802005208D8B6383E70005491785020013050576C1
S31580200530EF60D279930404FF9789020093898975A5
S3158020054083D504004E858904EF605278E31A94FEA1
S315802005501785020013058574EF605277854783558A
S315802005600400179602001306661B6306F900179689
S3158020057002001306A6FE178502001305A572EF60FA
S31580200580F2748947631EF90083552400179602006A
S315802005901306C618178502001305C570EF601273FF
S315802005A0179502001305051BEF60223EAA85178545
S315802005B002001305A5661DB701458280828001450C
S315802005C0828082808280411106E422E0635C050479
S315802005D013171500B6880583A5462E846305D70292
S315802005E0AA87328863EEE6006D570583698F954624
S315802005F06316D7020145173303000333232909A83D
S31580200600AD46631DD7000145173303000333830BA3
S315802006100293A2602285026441018280C686428638
S31580200620A2853E85EFF0BFE8411117B5020013057C
S3158020063065EA06E4EF609269EF00D002A260014588
S3158020064041018280557126FDAE8497D5020093851F
S3158020065065324AF986E5A2E14EF552F156ED5AE920
S315802006605EE562E1E6FCEAF8EEF42A8982E082E43D
S3158020067082E882ECEFC0311863530502014CAE60EC
S315802006800E64EA744A79AA790A7AEA6A4A6BAA6B6C
S31580200690E67C467DA67D62850A6C69618280DC4027
S315802006A0B706FF00AA891BD787011B968701598E1B
S315802006B01B978700758F598E4167130707F09BD745
S315802006C08700F98F5D8E1B060640A6852685EFD08E
S315802006D0F1022A8C6359050017D502001305052BD4
S315802006E0EF60D25E69BFCE854A85EFB031553C102A
S315802006F0FD5A2A84054B3EE497DC0200938C8C2C91
S3158020070093DA0A02130A0104130D4102930D0103A1
S3158020071097DB0200938B0B2EE34204F60146A285DB
S315802007204A85EFC04125A2672AE801480147E68627
S315802007302286CE854A85EF4062262A8C6301550B18
S31580200740C268130600025285C685EF501261930552
S3158020075000045285EF50B26B2AEC1DC1930500022E
S315802007605285EF507270E2662AE89305000236853C
S31580200770EF50926FC2679810899FBA97238007FEA1
S31580200780A2770147EA86FD17338587012AFC6E8684
S31580200790D285268562F8EF4042412A8C635D05002A
S315802007A0F957630AF500AA8517D502001305052295
S315802007B0EF60D251E9B581465E86A2854A85EFC033
S315802007C0C16105C5630D0B0092552685EFC0B11911
S315802007D0AA85014781465E862685EFD0815EA285E1
S315802007E04A85EFB0B1472A8405BF014BCDBFAA8584
S315802007F003B58114630FB500411106E4EFF09FE441
S31580200800AA876353A0008147A2601B850700410108
S31580200810828001458280411122E006E4EFF03FFD8F
S315802008200144635A05002A84AA8517950200130578
S31580200830E589EF60B249A260228502644101828007
S31580200840411106E4AA8503B5810DEFF0BFDF81470C
S315802008506343A000AA87A2601B850700410182808E
S31580200860AA8293360601F5E293867200E19A638A1C
S315802008705600338756402380B2008502E3EDD2FEB0
S31580200880198E93F5F50F93968500D58D9396050150
S31580200890D58D93960502D58D137786FFB386E20094
S315802008A01377870F11CF3307E04013070710B382E2
S315802008B0E2409737030083B7E7D80583BA978287C4
S315802008C023B0B20023B4B20023B8B20023BCB20056
S315802008D023B0B20223B4B20223B8B20223BCB2023E
S315802008E023B0B20423B4B20423B8B20423BCB20426
S315802008F023B0B20623B4B20623B8B20623BCB2060E
S3158020090023B0B20823B4B20823B8B20823BCB208F5
S3158020091023B0B20A23B4B20A23B8B20A23BCB20ADD
S3158020092023B0B20C23B4B20C23B8B20C23BCB20CC5
S3158020093023B0B20E23B4B20E23B8B20E23BCB20EAD
S3158020094093820210E3EED2F61D8A01CAB386C200D4
S315802009502380B2008502E3EDD2FE82800000000073
S3158020096000000000000000000000000000000000E1
S31580200970B302B54063E3C20061A0AA823295B295E4
S31580200980C146636BD602137685FF630AC500FD15C3
S31580200990838705007D152300F500E31AC5FE93F6AF
S315802009A075009DE69D0263F8A200E1159C616115A4
S315802009B01CE1E3ECA2FEE512630A5500FD15838750
S315802009C005007D152300F500E31A55FE16858280E5
S315802009D0139E3600B30EC041E1999C619D023397E8
S315802009E0D701E1159C6133D6C701598E611510E177
S315802009F0E3E7A2FEE512B695C1B70000000000002D
S31580200A00AA8FB302C500C1466367D60A130675004E
S31580200A10619A630AC5008387050085052300F50052
S31580200A200505E31AC5FE93F67500D5E2938212F882
S31580200A30637855069061946598699C6D03B8050224
S31580200A4083B8850203B3050383B3850303BE0504F8
S31580200A5083BE850403BF050510E114E518E91CED66
S31580200A60233005032334150323386502233C75027E
S31580200A702330C5052334D5052338E505B06DB471FB
S31580200A80B875BC7903B885079385050830ED34F1B0
S31580200A9038F53CF9233C050713050508E36C55F822
S31580200AA093828207637855009C61A1051CE121050C
S31580200AB0E36C55FE9D02630A5500838705008505F4
S31580200AC02300F5000505E31A55FE7E858280139E58
S31580200AD03600B30EC041E1999C61E51233D7C70138
S31580200AE09C65A1053396D701598E10E12105E367D0
S31580200AF055FE9D02B695C1B700000000000000009B
S31580200B0000000000ED4763C8A702A94763C4A70079
S31580200B1005C9828055352A87C14763EBE71A931723
S31580200B20050213D5E70117F70200130727203A9508
S31580200B301C41BA9782879307A0026305F5168280A7
S31580200B40371700031C57E19B1CD75C53E19B5CD372
S31580200B508280B7170003984F619B98CFD84F619BAF
S31580200B60D8CFD843619BD8C39843619B98C3984775
S31580200B70619B98C7D847619BD8C7984B619B98CB78
S31580200B80D84B619BD8CB8280B7170003D843619B13
S31580200B9013672700D8C39843619B1367270098C3A0
S31580200BA09847619B1367270098C7D84B619B13672B
S31580200BB02700C9BFB717000393870708D84F619BC3
S31580200BC013671700D8CF9853619B1367170098D364
S31580200BD0984F619B1367170098CFD847619B1367FF
S31580200BE01700D8C78280370700038327472993F7C2
S31580200BF0F7BF232AF728B717000393870708D84F0C
S31580200C00619BD8CF9853619B98D3984F619B98CFFF
S31580200C10D84B619BD8CB984B619B98CBD847619B0F
S31580200C20C9B7B7170003D857619B13671700D8D762
S31580200C30985B619B1367170098DBD85B619B136772
S31580200C401700D8DB985F619B1367170098DFD85F02
S31580200C50619B13671700D8DFB843619B1367170022
S31580200C60B8C38280B7170003D857619B13672700C4
S31580200C70D8D7985B619B1367270098DBD85B619BED
S31580200C8013672700D8DB985F619B1367270098DF5F
S31580200C90D85F619B13672700D8DFB843619B1367B2
S31580200CA027007DBFB7170003938707089847619B66
S31580200CB01367370098C7D843619B13673700D8C31B
S31580200CC09857619B1367370098D7D857619BD8D799
S31580200CD082803717000393070708B45F0145E19A9E
S31580200CE093E64600B4DFB45BE19A93E64600B4DB34
S31580200CF0F45BE19A93E64600F4DBF457E19A93E6B7
S31580200D003600F4D75457E19A93E6360054D7145BCD
S31580200D10E19A93E6360014DB545BE19A93E636003B
S31580200D2054DB145FE19A93E6360014DF545FE19A30
S31580200D3093E6360054DF3443E19A93E6360034C393
S31580200D40344BE19A93E6360034CB7447E19A93E6A6
S31580200D50360074C7D447E19A93E63600D4C7944BBD
S31580200D60E19A93E6360094CBD44BE19A93E636000B
S31580200D70D4CB944FE19A93E6360094CFD44FE19A20
S31580200D8093E63600D4CF9453E19A93E6360094D3F3
S31580200D90B45BE19A93E63600B4DBF45BE19A93E6A2
S31580200DA03600F4DBD457E19A93E63600D4D73C5705
S31580200DB0E19B93E737003CD78280411106E4973741
S31580200DC0030083B7A78F9C4319679B06771AB59F25
S31580200DD01B07871ABBD7E70237A600033707000E03
S31580200DE09306068093050050C217C1932310F702FD
S31580200DF08547DCC285671387079098C213874790FB
S31580200E0098C2379700036CDF138507C028C31385E4
S31580200E10E7C728C3938767909CC26CDF930730040B
S31580200E201CC79567938797645CC723220680B7176C
S31580200E300003154723AEE70823A0E70AB717111149
S31580200E4037770205938717112328F70A232AF70A6B
S31580200E501305A002EFF01FCBEFF0BFE7A26001459C
S31580200E6041018280B7670205054723A6E70CB7664E
S31580200E70020583A7C60CE39EE7FEAD6737570205BA
S31580200E80938787B15CC31C47C57693860681D58FA9
S31580200E901CC701A0F32710C06547B3D7E702130705
S31580200EA0803E9387773EB3D7E702C217C19323103C
S31580200EB0F50082805D71A2E026FC4AF84EF4B28469
S31580200EC086E47D3636842A89AE89A1066351C00A96
S31580200ED008642C0836E432E0EF60A26BE26703C731
S31580200EE007009307A00363ECE7009797020083B778
S31580200EF0E7E60266A266B3D7E700858BADEB08648A
S31580200F002546970503009385E5BDEF90702BAA872C
S31580200F101B86E4FF930604017D559DC7986F854700
S31580200F20630BF7029377170085EB9737030083B718
S31580200F30E78A83A7C71363C1E70217A502001305B3
S31580200F40E58CEF60A2587D55A6600664E2744279EE
S31580200F50A279616182801D4701489737030083B754
S31580200F60E7870127CE854A85EF50603EF1BF06642C
S31580200F70A660E274CE854A85A2794279054897375C
S31580200F80030083B7A7851307F07161616F50203CFA
S31580200F90AA88B687173503001305459D17380300A1
S31580200FA013084817AE869795020083B5A5DB3308CC
S31580200FB0A84013583840BB05B802328746866F90C2
S31580200FC0902C411106E4854717B502001305055A72
S31580200FD063D3C7008866EF50521B15712C00130609
S31580200FE0800C014586EDEF40F23DEF60224E17A53D
S31580200FF0020013052552EF60D00C17A502001305B9
S31580201000E557EF60100CEE6001452D618280797185
S3158020101026EC4AE806F422F04EE48547B2843689E7
S3158020102063DAC700886697A502009385A5BCEF5032
S31580201030E25839C185490544814731A889C71305B6
S315802010400002EF60700493173400CA978863050402
S31580201050EF60300785471B070400E34197FE6385D1
S3158020106009002945EF605002A2700274E264426949
S31580201070A2690145456182808149094475BF8547BA
S3158020108063DCC70088664111814506E4EF60C25063
S31580201090A2600125410182800145828005476F60DB
S315802010A0615E05476F60A16205476F60017C55715F
S315802010B086E5A2E126FD4AF94EF5854763C1C7023A
S315802010C017A50200130505CCEF6042400144AE60AF
S315802010D022850E64EA744A79AA7969618280B68407
S315802010E08C688864930981010547CE861008EFA015
S315802010F0A00C2A890544E34C05FC4265CE855041E7
S3158020110032E4EF70115C226611C98C64CA8617A5F9
S315802011100200130525CAEF60623B55BFEF80F10EB2
S315802011202A8475B705476F60A17B05476F6071106C
S3158020113005476F605113130101DC2AE41306700FF3
S3158020114081452808233C1122233881222334912269
S3158020115023302123233C312102E8EFF06FF0130660
S31580201160700F8145280A02EAEFF08FEF178502007B
S315802011701305C5CAEF6082350F005005B709000EEA
S3158020118023A20900A26613090111178602001306FD
S31580201190E6CA9305F00F4A85EF60C22A81454A85C3
S315802011A0EF90C06B814517850200130525CBB724A8
S315802011B00800EF90A06A0008938434479396C40071
S315802011C017860200130686CA9305F00F2285EF60E4
S315802011D0622781452285EF9060689396C4001786A2
S315802011E00200130626CA9305F00F2285EF6082251A
S315802011F081452285EF90806617850200130585CA72
S31580201200EF60C22C814517850200130525CBEF9010
S31580201210E0640F005005B7575250938777F423A880
S31580201220F90281454A85EF90606365DD83308123AD
S315802012300334012383348122033901228339812196
S31580201240130101248280697126EE4AEA06F622F28B
S315802012504EE64041832985002A89AE841306700F85
S315802012608145280002E0EFF0AFDF9377F41F91C726
S315802012701B04F41F137404E0012482148190B306A6
S3158020128099001B5494008A849305F00FA2871BD75C
S31580201290990017860200130666A12685EF60821ABA
S315802012A081452685EF90805B11C10144B2702285ED
S315802012B01274F2645269B26955618280130101D534
S315802012C01306700F8145A8002334112A2330812AE2
S315802012D0233C91282330412923382129233431293D
S315802012E0233C5127233861272334712723308127B4
S315802012F0233C91252338A1252334B12582E0EFF0A4
S315802013002FD6178502001305E59B800002F8231C43
S315802013100102EF60A21B8146178602001306869C77
S315802013209305F00F2285EF60E21181452285B7244F
S315802013300800EF90A052130A010393843447930543
S31580201340F00F1397C400D286178602001306069BD9
S315802013502285EF60220F81452285EF902050630CF5
S315802013600514178502001305E59AEF60221681463B
S31580201370178602001306069D9305F00F2285EF60DF
S31580201380620C81452285EF90604D9305F00F13976F
S31580201390C400D28617860200130646962285EF6001
S315802013A0620A81452285EF90604B63060510833063
S315802013B0812A0334012A83348129033901298339F7
S315802013C08128033A0128833A8127033B0127833BDF
S315802013D08126033C0126833C8125033D0125833DCF
S315802013E081241301012B8280827711469785020002
S315802013F09385C59A83AC0700A2774A8503AC0700FC
S3158020140093873BC08A0703AB0700B7772408938767
S315802014101730920783AA0700EF50421CAA8919C564
S31580201420A685178502001305E59711A2E6851785FF
S3158020143002001305A599EF6062091306700F814596
S31580201440A80282E2EFF0CFC15AE4370B00013B0BB2
S315802014508B01130D00045AEC930C0114A267638A46
S31580201460370DE2675A8863F3FA0056889305F00FA2
S31580201470EA88A6874A87D28617860200130686962A
S315802014806685C28DEF50127C81456685EF90003D42
S315802014904DE12686E2854A85EFF0FFDA19E5A685B5
S315802014A0178502001305059659A03B8DAD01BB8A91
S315802014B0BA41852965B70F005005B7575250938793
S315802014C077F43707000E1CDB9727030083B787182E
S315802014D09384F70FB7DB91209387D72F3EE89387A6
S315802014E01BC08A073EF0B7E7481037290800938744
S315802014F01760130939478E0732093EF49305F00F9A
S3158020150013080004A6874A87D28617860200130608
S31580201510E6842285EF50127381452285EF90003430
S31580201520E30405ECA6851785020013052585EF5073
S31580201530F279C2679384F40FE39297FC014585BDC7
S31580201540411106E422E005476312E60A3704000EBD
S315802015505C400F00A00A172703000337A7341CC35B
S315802015603757474D930627E3639DD70081451795C7
S3158020157002001305A563EF90602E0264A2604101EC
S3158020158035BB130717E33285639AE706814517959E
S3158020159002001305A561EF90602C18580264A260A2
S315802015A09B5687019B178701D58F1B158700B7060A
S315802015B0FF00758DC98F4165130505F01B57870080
S315802015C0698FD98F05671BD58700130707F0798D1B
S315802015D0BD661BD7C700758F598D1BD747001377DC
S315802015E0070FBD8BD98F3D9D4101B1B60C711795E3
S315802015F002001305A55CEF50726D0545A26002645A
S31580201600410182800111179502001305255C22E88D
S3158020161026E406ECB2843684EF50526B8D47639471
S31580201620F40408640D46979502009385A55BEF40E8
S31580201630F27A19ED086881452946EF50326B931569
S315802016400503C1910145172303000333231F02930A
S31580201650172303000333030E0293E2604264A264DD
S315802016600145056182809547E394F4FE08640D4622
S315802016709795020093858557EF40527671F9086CCD
S315802016800D46979502009385E555EF40327569F1B1
S31580201690086829468145EF507265AA84087081457D
S315802016A02946EF50B2649315050313950403C1911F
S315802016B0419151BF01476F50F17C01476F602101F5
S315802016C001476F60E12101476F60211A01476F60F2
S315802016D0A13D6F60A12F6F60814085477D5563DA7C
S315802016E0C70A39714AF056E406FC970A0300938AA2
S315802016F0EA8522F826F44EEC52E8858903B90A0059
S31580201700B9C997B4030083B4643C17B40300032497
S31580201710643C41473B478702A68526859B06090070
S315802017201B060400B3092403EF40C273014523B08E
S315802017302A0197B7030023BF8738CE9497B7030033
S3158020174023B69738E2704274A2740279E269426ABB
S31580201750A26A2161828088629145328AB689EF9019
S3158020176040462A840545E34F04FC03B5890081451C
S31580201770EF50326297B4030083B4C4348947AA9465
S31580201780E309FAF803B509018145EF5092602A8969
S3158020179049B78280411122E006E4854717B40300C9
S315802017A01304443263D7C70088668145EF50725E42
S315802017B008E00C60179502001305C570EF50125192
S315802017C0A26002640145410182801B07D6FF8547BE
S315802017D063E6E70C886A7971814506F422F026EC67
S315802017E04AE84EE43689B28952E0EF50925AAA846A
S315802017F0033589008145EF50D25991472A846393D6
S31580201800F906033589018145EF50B25801ED17A5B8
S3158020181002001305A5C6EF50724BB777AB378A0700
S315802018201385F7EE0125EF50821393D924000149C1
S3158020183093170902819363E33705014993F93400AD
S3158020184063663905A68517A50200130525C6EF50C0
S31580201850F247A2700274E2644269A269026A014573
S31580201860456182800145EF40F2752A89EF50620EEC
S3158020187093170502819333C527016DB7130A440058
S31580201880EF50220D08C0052952845DB7EF50620CB7
S31580201890B30724012380A70005095DB77D55828083
S315802018A079714EE406F422F026EC4AE889497D5582
S315802018B063D2C90A886291453689EF908030AA849E
S315802018C063490508033589008145EF50924C2A8467
S315802018D0033509018145EF50D24B85476314F502C4
S315802018E0A1476394F4001C60FDBF91476394F40084
S315802018F01C40FDBF6395340183570400F5BF8347A1
S315802019000400F5BFA1476399F4002287AA87F5DFF3
S315802019101463FD172107E5BF91476399F400228759
S31580201920AA87F5DF1443FD171107E5BF3307A40007
S31580201930639A34012287AA87F5DF83560700FD172D
S315802019400907DDBFA287E38FE7FE83C607008507E9
S31580201950DDBF0545A2700274E2644269A2694561D1
S3158020196082805D71A2E086E426FC4AF84EF4914797
S315802019707D54631BF60C88629145B2893689EF9037
S315802019804024AA8805446341050CA1479794020008
S315802019909384C4556303F502979402009384045676
S315802019A0630D3501894797940200938424536306F7
S315802019B0F500979402009384E45403358900814589
S315802019C097B903009389091046ECEF50923C03B4F3
S315802019D0090081452A9403350901EF50923B83B94A
S315802019E009008145AA99033589010149EF50723A48
S315802019F0E2682286B3868940914521480943B30708
S31580201A00D60063142501014405A86397B8040367AB
S31580201A10060083E707006302F706330486403EE02C
S31580201A2033888900A687C686A68517950200130562
S31580201A30E54DEF50B22905442686CA8517950200C2
S31580201A4013054550EF509228A66022850664E274DD
S31580201A504279A279616182806395080118629C63CC
S31580201A605DBF639768000357060083D7070065B775
S31580201A700347060083C7070079BF4696050941B705
S31580201A805971CAE886F4A2F0A6ECCEE4D2E056FCE0
S31580201A905AF85EF462F066EC85892A89B1C517B456
S31580201AA003000334A40397B4030083A4A40317BBC1
S31580201AB00200130BAB55114AA14A9729030083B91B
S31580201AC0E9B8930B81003B0C9040A2855A85A68C61
S31580201AD0EF50D21F639D44030C4017B502001305B7
S31580201AE06553EF50B21E2DA8086291453284EF903F
S31580201AF0400DAA84054563C1040C08648145EF50D6
S31580201B00522917B403000334E4FB2A944DB7639E0D
S31580201B1054030C6017B5020013054550EF50121B75
S31580201B2017B5020013050551EF50B03F19C98547F7
S31580201B30631EF50203C709009307D0026318F702D4
S31580201B40E28CE30409F8669449B789476399F400DF
S31580201B508355040017B502001305C54C59B7834534
S31580201B60040017B502001305654CA5BF4146DE85E6
S31580201B704E85EF503232AA8722653B0535410DC509
S31580201B80639744011CC0E30209F426943DBF639405
S31580201B9054011CE0CDBF09476395E4002310F4006F
S31580201BA0DDB72300F400C5B797B7030023B887F2C3
S31580201BB097B7030023B897F2A6700674E664466941
S31580201BC0A669066AE27A427BA27B027CE26C656128
S31580201BD0828089476315F6003686054555B57D553D
S31580201BE0828089476315F6003686014551BD7D552D
S31580201BF082801B07D6FF85477D5563E2E70A797188
S31580201C0026EC4EE452E006F422F04AE888629145BA
S31580201C10328AB689EF80F07AAA8405456356900485
S31580201C2003B589008145EF50D21697B7030083B755
S31580201C3067E9414681453304F50003B50901EF5034
S31580201C40722591472A8905456317FA0003B58901CC
S31580201C508145EF501214A2877D57914621468945AA
S31580201C607D15631BE5000145A2700274E26442691A
S31580201C70A269026A456182806396D40023A02701E7
S31580201C80A697F9BF6395C40023B02701D5BF639576
S31580201C90B40023902701EDB723802701D5B7828012
S31580201CA039714AF006FC22F826F44EEC52E856E4C6
S31580201CB05AE091477D596318F604886291453684A7
S31580201CC0EF803070AA840549634F050208648145F8
S31580201CD097BA0300938A0ADFEF50B20B2A8A0868E4
S31580201CE0814503BB0A00EF50D20AAA89086C814538
S31580201CF083BA0A00EF50F20915E117950200130501
S31580201D00E526EF50103CE2704274A274E269426A82
S31580201D10A26A026B4A850279216182803386A40277
S31580201D20B3056A01338559010149EFE07FCDE1BFD3
S31580201D30797122F026EC4EE452E006F44AE82A8AAB
S31580201D408866AE89328497F50200938525213146AF
S31580201D50B684EF80F0462DCD1C457D342A8963C913
S31580201D6087068547A104639AF90018699727030097
S31580201D7083B7C79B01456315F70497F7020083A7AE
S31580201D80671D63DA0700EFD090476354A00297F768
S31580201D90020023A1071C2286027483378901A27040
S31580201DA04269A686CE85E264A2695285026A456129
S31580201DB08287179502001305E55EEF509030054522
S31580201DC0A2700274E2644269A269026A45618280D5
S31580201DD07D55FDB7011122E806EC26E44AE08947C5
S31580201DE07D54631AF6028866814517F90200130925
S31580201DF06916EF50027A2A8403250900EFD0F03C39
S31580201E00AA840DE1832509001795020013058551C3
S31580201E100544EF50A26BE26022854264A264026987
S31580201E200561828093150403C191EFD030172A84EF
S31580201E30979502009385054D09C597950200938550
S31580201E40E54D179502001305E54FEF50226861F4A2
S31580201E5023AC04002685EFC0907E3334A00065BF76
S31580201E604111294506E4EFD0F041A26001454101A8
S31580201E708280130101D52334112A2330812A233CE1
S31580201E809128233821292334312923304129233C81
S31580201E905127233861272334712723308127233CF8
S31580201EA091252338A1251C612A8417B502001305A4
S31580201EB065778C63EF5082618345340617B50200BF
S31580201EC013054577EF5082602C5017B50200130515
S31580201ED0E5779BD58500C215C191EF50225F705062
S31580201EE08345040617B50200130545771B578600E0
S31580201EF09B5606019377F60F1377F70F1B568601AD
S31580201F0093F6F60FEF50825C0C5417B5020013053A
S31580201F106576EF50A25B03250411EFB0F07CAA858D
S31580201F2017B5020013050576EF50425A4C5817B55F
S31580201F30020013052576EFC0B03F0C5C17B5020072
S31580201F401305C576EFC0D03E8325040817B5020059
S31580201F5013054577EF508257104497B50200938535
S31580201F6065696356060097B50200938525689B565A
S31580201F7086001B56060193F6F60F1376F60F17B5D5
S31580201F8002001305A575EF5062548345840099C5D8
S31580201F9017B5020013050576EF50425317750200D8
S31580201FA01305457BEF5082525C4C97B50200938592
S31580201FB0E56489E797B502009385C56417B5020065
S31580201FC01305C573EF50825017B50200130585742B
S31580201FD0EF50300F4870977502009385A577EF30C4
S31580201FE092418327440F4C5017B60200130606628F
S31580201FF089E717A602001306665717B50200130550
S315802020006572EF50A24C17B5020013052573EF5069
S31580202010500B03658408977502009385A573260562
S31580202020EF30723D1844B707FCBF9B87F7BF3D9FB3
S31580202030B707FC3F9387E7BF63E0E71C8349240704
S31580202040814493F929006385090083443407858870
S3158020205017B5020013050570EF50B0060365C40856
S31580202060977502009385056F130AF1042605EF30D4
S31580202070923817B502001305656FEF5090044874A7
S31580202080137A0AFC97B502009385C55889E497A5EB
S3158020209002009385A54DEF30123683474407858B02
S315802020A06387071817B502001305456DEF50700139
S315802020B09DC817B502001305E56CEF509000687037
S315802020C09775020093850569EF30F23217B50200C5
S315802020D01305C56CEF50E07E687497750200938572
S315802020E06567EF30523117B502001305A56CEF50A6
S315802020F0407D487897B502009385455263960900BE
S3158020210097750200938505652EE4EF30D22E17B59C
S3158020211002001305256BEF50C07AA265487C930A8E
S31580202120040C8144EF30322D97BB0200938B8B6A4F
S3158020213017BC0200130C0C4E97BC0200938C0C64C7
S3158020214017AD0200130D8D42114B852401496388FA
S315802021500900034934073B5999401379190083B7FD
S315802021600A0095C7A6855E85EF50423603B50A00DC
S31580202170E28563130900EA85EF30F2278347440717
S31580202180BBD79740858BC5CB6685EF508073A10AD8
S31580202190E39D64FB2285D285EFC0C0192A8429ED70
S315802021A08344EA0A97B902009389C963054917BA15
S315802021B00200130A2A66894A17BB0200130B0B6793
S315802021C097BB0200938B0B6817BC0200130C0C6321
S315802021D0A2854E85EF50822F93F7340052856388EF
S315802021E027015A8563855701628591C35E85EF50A5
S315802021F0E22D8980631524058330812A0334012AC0
S31580202200833481290339012983398128033A012896
S31580202210833A8127033B0127833B8126033C012682
S31580202220833C8125033D01251301012B828029458D
S31580202230EF508065B5BD2945EF50006589BF0544BF
S3158020224041BF011122E826E44AE006EC2A89AE84C1
S31580202250EFD0A0772A8419EDCA8517950200130539
S31580202260650CEF50A226E26022854264A264026950
S3158020227005618280EFD0C06111C199C0232C0400F2
S315802022802285EFC0D03B09E92285EFD0E0784C410A
S315802022900841EFB0A063C1BF0144F1B75DB771714A
S315802022A0DEF4930B010152E18145328A5E85130665
S315802022B0C00206F522F1DAF826ED368B4AE94EE59C
S315802022C0D6FCE2F0E6ECEAE8EEE4EFE06FD917F52B
S315802022D00200032525C881450544EFF03FFC2AE00E
S315802022E001C5634940377D54AA7022850A74EA6401
S315802022F04A69AA690A6AE67A467BA67B067CE66CE8
S31580202300466DA66D4D61828093943C00B3099B00F7
S3158020231003B50900979502009385C5E1EF40022A0F
S315802023202A8955ED1B841C00A104314681455E8592
S31580202330BB0C8A40DA94EFE0AFD263459901BB0C9F
S3158020234024017DA293193900338C340103350C0086
S3158020235097950200938585DEEF4042261DE11B0777
S315802023602900E35297F903358C0081450D29EF50DA
S31580202370A2222AC803350C018145EF50E2212ACAC0
S315802023806DBF03350C00979502009385A5DBEF4042
S31580202390E22255F59B071900E3D797F5A1098347D4
S315802023A08101A69903B5090093E71700EA85230CD6
S315802023B0F100EF40A22009E98347810193E72700B6
S315802023C0230CF100092995BF03B50900EE85EF405E
S315802023D0E21EE31A05F083478101F59BD5B703B545
S315802023E00900094697950200938545D6EF40021F3E
S315802023F06314050E03B50900EF40E2228D47631D65
S31580202400F50C83B7090003C427001B04F4FC9377DB
S31580202410F40F6363F50C0E041305C4002146814531
S315802024205E95852CEFE0CFC3A1043B099A41854771
S31580202430DA94E3DA27EB88608145EF50E2159C0039
S31580202440338C8700232EACFC0544931934003387C4
S315802024503401086397950200938545CE3AE4EF4090
S31580202460E215226709ED03470CFE05241367170042
S315802024702300ECFEE34B24FDBB8C8C0095A80863DF
S3158020248097950200938505CCEF40421375F51B077F
S315802024901400E35A27E503470CFEA109A69903B544
S315802024A00900136727002300ECFEEA85EF4002111E
S315802024B009E903470CFE136747002300ECFE092435
S315802024C055BF03B50900EE85EF40420FE31D05E0B9
S315802024D003470CFE6D9BD5B703B50900979502007F
S315802024E0938545C7EF40820D631D0512852C814A51
S315802024F0E3CC4CE117950200130545C7EF50603CAD
S31580202500D2476384071617950200130525C8EF5016
S31580202510403B03650101977502009385A523260517
S31580202520EF30626D179502001305C5C7EF506039ED
S3158020253003654101977502009385C5212605EF30F5
S31580202540826B8347810113F717000DC3898B97D53B
S315802025500200938525A789E797950200938505BD77
S3158020256017950200130585C7EF405276DE84014910
S31580202570179C0200130C8CCA97990200938989C8EC
S3158020258017BA0200130A8A09177B0200130B8B1CC9
S3158020259097DC0200938C0CA3179D0200130D8DC926
S315802025A0979D0200938D8DB8D84413143900052940
S315802025B0CA8579C34E85EF4072719C003387870028
S315802025C0033707FE03E5C400D285058B260511E374
S315802025D0DA85EF3042629C003E94033704FE9356A0
S315802025E01700858A91CA0983058B668611E36E86D4
S315802025F0CA856A85EF40926D9147A104E316F9FA60
S3158020260002655686DE85EFC0E0172A8435E989473C
S31580202610E39CFACC179502001305C5C3EF50602AB8
S31580202620E1B103B5090097C50200938525D9EF301E
S31580202630F27801E5852C854A65BD03B50900979515
S3158020264002009385A5B1EF307277E31E05C8852CED
S31580202650894A79BD854C814A17DD0200130D8D96F6
S31580202660979D0200938D8DAC61B517950200130559
S31580202670E5B4EF500025F1B56285EF403265A1BF04
S3158020268017950200130585C0EF50A0230544A9B9EC
S31580202690411106E48547631EF60017F502000325DF
S315802026A0658B8545EFF09FBF13351500A2604101EC
S315802026B0828089477D55E31BF6FE88668145EF40FB
S315802026C0B26D17F502000325E5888545EFF07FB7C3
S315802026D0E1BF411122E006E489477D54631CF6025E
S315802026E0886681450544EF40326B85450125EFF0AC
S315802026F0FFBA0DC185461306200A8545EFB070586E
S315802027002A84AA8517950200130545A0EF40125CFE
S3158020271033348000A26022850264410182807971EF
S3158020272006F422F026EC4AE84EE485476317F6063F
S3158020273017F402000324048285452285EFF01FB614
S31580202740AA840149D1CC4A86A2851945EFA0D044D6
S31580202750AA89179602001306668909C5179602006C
S315802027601306C6BBCA85179502001305258BEF4035
S31580202770F2556397090603C7540797E7020023ABF0
S31580202780877C9307F00F6319F70AA28517950200B5
S315802027901305C58AEF409253A9A08947B684631949
S315802027A0F60088668145EF40325F1B04050069B7D5
S315802027B08D476317F60488668145EF40F25D2A844B
S315802027C088688145EF40525D1B0905009D4763D28D
S315802027D027039D45179502001305C581EF40124FAB
S315802027E08549A2700274E26442694E85A269456178
S315802027F08280012485452285EFF05FAAAA8499B735
S315802028009147FD59E31FF6FC88668145EF40D258F3
S315802028102A8488688145EF4032581B0905009D47E8
S31580202820E3C927FB886C81450124EF40F256854514
S315802028302285EFF01FA1D9B72685EFD0E01D03466C
S31580202840B500A2851795020013054581EF401248F1
S3158020285049BF411122E017E402001304A46F084007
S31580202860814506E4EFF09FA3854719CD0C40194595
S31580202870EFA0D03019CD0347C5009307F00F630A28
S31580202880F700EF80E06C8147A26002643E854101BB
S31580202890828017950200130565A0EF508002854738
S315802028A0E5B7397122F806FC26F44AF04EEC52E858
S315802028B056E48D477D546313F60688668145B68433
S315802028C0EF40324DAA898868814597EA0200938A2B
S315802028D06A68EF40124C2A8A03A50A00814505447E
S315802028E0EFF0DF9BAA841DC983A50A001B090A0075
S315802028F0CA861B860900178502001305A578EF4036
S31580202900F23C2685EFC0B07785472A846312F5028C
S31580202910178502001305057AEF40523BE270228527
S315802029204274A2740279E269426AA26A2161828033
S315802029300145EF303269AA8A2685EFD0E00DFD5514
S3158020294081913376BA00B3F5B900EFA0B0331B047A
S3158020295005005685EF301267AA8417860200130673
S31580202960E66863068900179602001306269BA686CC
S31580202970A2851785020013056576EF4032359DCCFA
S315802029801785020013058577EF40B0731B159400D9
S315802029900215821401918190B35495021305803ECD
S315802029A097850200938505763385A402EF30A2248D
S315802029B017C50200130505ACEF40B07017750200ED
S315802029C0130545D933048940EF40B06F33348000F6
S315802029D0B1B7397122F806FC26F44AF04EEC52E85B
S315802029E056E45AE091477D546318F60688668145F9
S315802029F0B684EF40123A2A8B8868814597EA02008E
S31580202A00938A4A55EF40F238AA89886C81450544D5
S31580202A10EF4032382A8A03A50A008145EFF01F88C5
S31580202A20AA841DC983A50A001B090A00CA861B869B
S31580202A300900179502001305E591EF403229268576
S31580202A40EFC0F06385472A846313F5021785020059
S31580202A5013054566EF409227E27022854274A27460
S31580202A600279E269426AA26A026B2161828001450B
S31580202A70EF305255AA8A2685EFC0107AFD5581916E
S31580202A803376BA00DA86B3F5B900EFA0D01A1B04E4
S31580202A9005005685EF301253AA8417860200130646
S31580202AA0E654630689001796020013062687A686B3
S31580202AB0A285179502001305E58CEF4032219DCC27
S31580202AC01785020013058563EF40B05F1B159400C0
S31580202AD00215821401918190B35495021305803E8C
S31580202AE097850200938505623385A402EF30A21074
S31580202AF017C5020013050598EF40B05C17750200D4
S31580202B00130545C533048940EF40B05B33348000DC
S31580202B10A1B717E502000325E5434111814506E467
S31580202B2022E0EFF0AFF719E50544A2602285026422
S31580202B30410182801C4563D9070017850200130551
S31580202B406547EF40B218CDB7EFB0D03B2A8469FDF8
S31580202B501785020013050548EF405217F9B73971DA
S31580202B6022F806FC26F44AF04EEC52E856E45AE067
S31580202B7091477D54631BF60E88668145B684EF4067
S31580202B8052212A8B8868814597EA0200938A8A3C5B
S31580202B90EF403220AA89886C8145EF40921FAA8413
S31580202BA003A50A008145EFF06FEF2A8A71C983A5B4
S31580202BB00A001B890400CA861B8609001785020025
S31580202BC01305456FEF4092100145EF30B23FAA8A38
S31580202BD05285EFC070649355040233F6B400DA86CA
S31580202BE0B3F5B900EFA0407D1B0405005685EF3074
S31580202BF0723DAA84178602001306463F6306890023
S31580202C001786020013068671A686A285178502007E
S31580202C101305456DEF40920B9DCC17850200130559
S31580202C20E54DEF40104A1B15940002158214019140
S31580202C308190B35495021305803E97850200938533
S31580202C40654C3385A402EF20127B17C5020013053D
S31580202C506582EF401047177502001305A5AF330430
S31580202C608940EF40104633348000E27022854274DA
S31580202C70A2740279E269426AA26A026B2161828029
S31580202C800544E5B7411122E017E402001304842CA1
S31580202C901C4006E463DA0700EFC070566350A0023A
S31580202CA097E7020023A8072A08408145EFF00FDF27
S31580202CB0854701CDEFF0EF9B814701A8178502005C
S31580202CC01305456EEF40F03F8547A26002643E853E
S31580202CD041018280797122F026EC4AE84EE406F49E
S31580202CE0AA8988662E89328497E5020093850545D0
S31580202CF00546B684EF70D04C15CD18451B06F4FFDB
S31580202D00AA876349C702054793868400631AE90028
S31580202D100C6917170300033767A10145639DE500FA
S31580202D200274A270E2649C6FCA854E854269A2694C
S31580202D30456182877D55A2700274E2644269A269E8
S31580202D40456182805D7126FC86E4A2E04AF84EF4D5
S31580202D5052F056EC5AE8EF40F258AA842C0013051C
S31580202D603002EF90D01D05EDA2670A89978902006F
S31580202D709389C965806B178A0200130AAA64979A79
S31580202D800200938AAA7E130484FA178B0200130BFF
S31580202D906B64A26713078405C107631DF700A660CD
S31580202DA00664E2744279A279027AE26A426B01452C
S31580202DB0616182808325C4084A864E85EF40B2753C
S31580202DC08325C40810645287630394005687CA8675
S31580202DD05A85EF40A26F206C130484FA5DBF854725
S31580202DE063C5A700FD573E858280130101D0233419
S31580202DF0912E233C312D233C112E2338812E2330B6
S31580202E00212F2338412D2334512D2330612D233CEE
S31580202E10712B2338812B2334912B8947AA84AE8921
S31580202E20630BF510138A05010949814A130BD002D9
S31580202E30978B0200938B8B6103340A0083470400AF
S31580202E40639D6701DE852285EF30427755E105292E
S31580202E50210A854AE34299FE014405296312990A8B
S31580202E6083B5890003B509001008EF80E0268547E1
S31580202E706349050861C41306801F8145281102F124
S31580202E808544EFD0FF9D130A8101176B0200130B37
S31580202E90EB6C13098100978B0200938BAB5D130C2F
S31580202EA0010A979C0200938C6C6C930900044265FE
S31580202EB05286A685EF80601A1DE163840A00C65774
S31580202EC099CF8347010A5A8691E36686DE85A68650
S31580202ED04A85EF40E259CA856285EF30C2698524EA
S31580202EE0E39734FD0C112285EF10E023814711A84A
S31580202EF083350A001785020013054556EF40025D8B
S31580202F00FD578330812F0334012F8334812E03395B
S31580202F10012E8339812D033A012D833A812C033B5F
S31580202F20012C833B812B033C012B833C812A3E85CC
S31580202F30130101308280814A01441DB74265EF80AA
S31580202F4020016DB7130101D22338812C2330212D06
S31580202F50233C312B2A892E84B28981451306801FF2
S31580202F602819233C112C2334912C02F9EFD05F8F22
S31580202F701B07D9FF85477D5563EAE7000C64086007
S31580202F803008EF8060156350050205458330812D1A
S31580202F900334012D8334812C0339012C8339812BF1
S31580202FA01301012E8280086801460C10EF400254DE
S31580202FB08277AA86301083C707006265B1E38126AF
S31580202FC0B68536E4EF806009A26661F185470419EB
S31580202FD0638FF9028947638EF902A27617860200EB
S31580202FE01306C645930500202685EF40A2459147C6
S31580202FF0A685631AF902086CEF10E012014579B7AD
S315802030000C68EF80204EAA86E35205FCBDBFC276AF
S31580203010F1B7178602001306E6429305002026851F
S31580203020EF404242E9B717A5020013052560EF401D
S31580203030E249E9B731714EED06FD22F926F54AF1CE
S3158020304052E9854963C4C900FD5481A08866978565
S3158020305002009385A53932893684EF302256AA8498
S3158020306039E59B07C9FFE3E1F9FE0C6C0868014747
S3158020307034000A86EF804014634905029547CC10B8
S31580203080631EF9000870EF10000AEA704A740A7904
S31580203090EA694A6A2685AA742961828017A5020070
S315802030A01305C558EF408242CDB78544F9BF0864E1
S315802030B097B5020093858546EF30425011ED9305F2
S315802030C004014A74EA70AA74EA694A6A1B05E9FF10
S315802030D00A7929616FF0BFD0086497B5020093857D
S315802030E0E5EBEF30A24D01461DC1086497B502007D
S315802030F09385C587EF30824C054611C9086497852C
S3158020310002009385252FEF30624B11ED09469305FA
S3158020311004014A74EA70AA74EA694A6A1B05E9FFBF
S315802031200A79296105B50864978502009385052D5E
S31580203130EF30C248AA84E31905F0178502001305EB
S31580203140652CEF4000789777020083B7A7C11719BF
S315802031500300130929471714030013042449330451
S3158020316024410D843B04F402930780028149178A07
S315802031700200130A2A2B3304F4024A94631189022B
S3158020318063980900178502001305452AEF4060736E
S31580203190176502001305055CEF40A072FDB5930507
S315802031A0C002639409009305A00303360900528563
S315802031B08529EF40A23113098902C9B70545828046
S315802031C001458280894763DEC7221971A2F8A6F459
S315802031D0CAF0CEECD2E8DAE05EFC62F866F46AF0F9
S315802031E06EEC86FCD6E49B04F6FF13848600014AA7
S315802031F00149FD598147C14C614DB14D054B894BE4
S3158020320017DC0200130C0C9E9706030083B6066D0E
S31580203210814A29A0852AE106638D9A039842E35B39
S3158020322097FE0E0722978C6608633EE436E0EF30E1
S31580203230E2388266A267170603000336266A79F982
S31580203240B38AAA03B29A03A70A0183AA4A0163D43E
S3158020325054038547E6704674A6740679E669466AFD
S31580203260A66A066BE27B427CA27C027DE26D13B568
S315802032701700096182809B06C7FF368663E1CD14DD
S315802032809397060293D6E701E2969C42E29782873D
S315802032900864EF304239933715006314690193B778
S315802032A0170063127A1533E537010125B337A0005D
S315802032B00147014905A20864EF30E236B337A00002
S315802032C0E9BF0C680860EF30622FF1B70C680860A0
S315802032D0EF30C22EE5B70C680860EF30222E9B5760
S315802032E0F50165BF0C680860EF30422DB327A0003A
S315802032F06DB7086001468145EF40E22F2AE00868D5
S3158020330001468145EF40222F82673385A74061B7EA
S31580203310086001468145EF40022E2AE00868014672
S315802033208145EF40422D82673385A74041BF0860A3
S3158020333001468145EF40222C2AE0086801468145D6
S31580203340EF40622B8267B3A7A70081BF0860014642
S315802033508145EF40422A2AE0086801468145EF40B0
S31580203360822982673325F500134515009B070500C2
S315802033702DB7086001468145EF40E2272AE008689C
S3158020338001468145EF4022278267B327F50031B772
S31580203390086001468145EF4002262AE008680146FA
S315802033A08145EF404225826733A5A70075BF106C03
S315802033B00C6808648146EF404150AA87F9BD630CAA
S315802033C077038D466309D702E31967ED05473B09E5
S315802033D02741528793963A00BB8454413694E38B97
S315802033E004E63A8A15B50D47E314EAEC63870900AB
S315802033F0B337F00075BDBE89F1BF014701498147CA
S31580203400D1BF05458280370705031C4B858BF5FF89
S315802034108280797122F026EC4AE84EE406F4AA846A
S3158020342017E90200130909EC0144BD4983350900D7
S3158020343091ED05242109E31B34FF7D54A27022855A
S315802034400274E2644269A269456182802685EF30F2
S31580203450E21665F1E5B71307F00FAA876361A70225
S3158020346013773500495509EF370505031B050510E8
S31580203470A99F82178193884302150191828049559D
S315802034808280697126EE040822F24AEA06F6014411
S31580203490A6851309001022852EE4EFF0DFFB88C075
S315802034A01124A2659104E31824FF41479306001056
S315802034B005460145EF20121BB2701274F2645269E0
S315802034C00145556182809307F00F63E5A710197136
S315802034D0A6F49377350086FCA2F8CAF0CEECD2E823
S315802034E0D6E4DAE05EFC62F866F46AF06EECAA84D2
S315802034F04955E1E39BD42400AE899B941400014A6C
S31580203500814A37040503C54B514D130C0002C94C23
S315802035101C4033EB4401814D93E707011CC0EFF03B
S315802035209FEE2322640123207401EFF0DFED03292F
S31580203530C4001349F9FF33793901BB57B901858B0B
S3158020354081CF9B977D00B367FB003EE4EFF0BFEB16
S31580203550A2675CC02320A401852DE3908DFF1C40AB
S3158020356093E707011CC0EFF01FEA23226401232082
S315802035709401EFF05FE95C44B3F7F9006383F900C7
S31580203580852A63070A04B70705031307000398C330
S315802035906D5563435A0101452AE4370705031C43C9
S315802035A093E707011CC3930700031CC3EFF0BFE515
S315802035B02265E6704674A6740679E669466AA66A26
S315802035C0066BE27B427CA27C027DE26D0961828071
S315802035D0054A3DBF495582805D7126FC4AF84EF4E6
S315802035E052F056EC86E4A2E02A8AB289AE8401495A
S315802035F0930AC10063643901014415A8A685114642
S315802036005685EFD0EFBFB2453B052A019104EFF0F6
S315802036109FEB2A84635705022A8697550200938555
S31580203620E5331755020013056512EF30326AA6601E
S3158020363022850664E2744279A279027AE26A61611D
S315802036408280112945BF8D477D556311F606886690
S3158020365001110146814506EC22E826E4B684EF3046
S31580203660F2681B040500886801468145EF301268A0
S315802036709B0405002686A28517750200130585669C
S31580203680EF30D264A6852285EFF0FFE3AA85014537
S3158020369063D90500177502001305C566EF301263DE
S315802036A00545E2604264A2640561828082809147FA
S315802036B063E2A7029317050213D5D7019767020005
S315802036C09387C76E3E955C417D5591C7014581C5DF
S315802036D09CC182807D558280A1CD79714AE84EE455
S315802036E006F422F026EC13070010AA892E89B287C9
S315802036F06374C700930700101B84070081441B85D1
S31580203700040063648500014501A83B053501EFF07F
S315802037109FD4635A05000125A2700274E26442692F
S31580203720A26945618280B307990088C39104C1BF8D
S3158020373079558280914763EFA70C597156FC931A6D
S31580203740050293DA0A02D2E093973A00176A0200BA
S31580203750130ACA65D2975AF803AB4700CAE886F49B
S31580203760A2F0A6ECCEE42A8963080B0A2E84DDC556
S31580203770B2890216019281452285EFD06F8EDA8436
S3158020378063F469019B840900630209028E0A569AB2
S31580203790A285067403250A00A6704669A669066A6C
S315802037A0E27A427B2686E66465613DB7130A81000C
S315802037B01306800281455285EFD08F8A17690200D1
S315802037C01309C968176B0200130B4B6DD28A8329A4
S315802037D0490003250900D6854E86EFF0FFEF634129
S315802037E00502821993D909022109CE9AE31169FF2C
S315802037F0139604020192D2852285EFD06FA00145CF
S31580203800A6700674E6644669A669066AE27A427BF1
S31580203810656182807D5582807D55DDB77955CDB7AE
S31580203820914763E7A70A131705020193976702005A
S315802038309387C75793163700BE96D442D1CA1D7137
S31580203840A6E486ECA2E8CAE04EFCAE84C1C53689E1
S315802038506373D60032891B06090009CD0E0746649C
S31580203860BA97E6600669E2798843A685A6642561CB
S315802038706FF09FD620001306800281452285EFC0F7
S315802038803FFE13160902A68501922285EFD04F9717
S31580203890976402009384845B976902009389096008
S315802038A003A944008840A2854A86EFF0FFD2634A66
S315802038B00500021913590902A1044A94E39299FE3C
S315802038C00145E6604664A6640669E27925618280C0
S315802038D07D5582807955F5B7011106EC8547631FA2
S315802038E0F500B7074000B1076C0011461305000AA2
S315802038F03EC6EFF07FCEE26005618280B707400248
S315802039009387C70CD5B7011111466C001305000AA1
S3158020391022E806EC02C6EFF03FDC2A8463410508E4
S31580203920B24717550200130565C11BD427000D88A1
S315802039302DC49BD747019D8B05471755020013053C
S31580203940E5C46382E702094717550200130585C738
S31580203950638BE700175502001305C5BF89C7175526
S3158020396002001305A5C9EF30723632451B54650017
S315802039700D8815C41B55750113747500854763051D
S31580203980F4028947630AF40217550200130505D706
S3158020399005E017550200130565CAEF303233E26021
S315802039A0228542640561828017550200130505CD64
S315802039B0EF30D2310144E5B717550200130505D003
S315802039C0C5BFB94763EEA70439719317050213D58E
S315802039D0D70126F4976402009384C43FAA949C401E
S315802039E022F80D44BB17F4006C0811461305800F8E
S315802039F03ECE2EE406FCEFF03FBEDC40A26563D8C7
S31580203A000700E2704274A2740125216182803B14F2
S31580203A10F40011461305800F22CEEFF0FFBBD5B7F9
S31580203A207D558280011106EC22E802C6B94763E003
S31580203A30A7042A8411466C001305800FEFF0DFC996
S31580203A40634305029317040213D4D7011765020036
S31580203A50130545382A941C400D453B15F500B24781
S31580203A607D8D3335A000E2604264056182807D557C
S31580203A70DDBFB94763EBA7029317050213D5D7019C
S31580203A8097670200938707353E95184101118D4728
S31580203A90BB97E7006C0011461305800F06EC3EC6E7
S31580203AA0EFF09FB3E260056182807D5582805571FB
S31580203AB04AF98145328928081306800726FD86E53E
S31580203AC0A2E14EF552F156ED5AE9B68402E8EFC0EE
S31580203AD03FD91B07E9FF854763FEE700FD57AE60A8
S31580203AE00E64EA744A79AA790A7AEA6A4A6B3E852A
S31580203AF0696182808864EFF0DF912A84E34005FE45
S31580203B001317350097D702009387C77DBA9783B955
S31580203B1007002A86177502001305C512CE85EF3059
S31580203B20F21A914763C3870A8D47E319F9FA130A74
S31580203B300101130600088145528503B90401130B40
S31580203B408100EFC0FFD18144930A00088346090093
S31580203B509B8704008DCA0347190015C741468145B6
S31580203B605A852304D100A304E10023050100EF3008
S31580203B70F217B3079A002380A70085040909E397E3
S31580203B8054FD930700083EC4BE86A9DBD285014733
S31580203B9005460145EF20022D01242C002285EFF0D9
S31580203BA01FB16354050085471DBF2246D2852285D5
S31580203BB0EFF01FC78147E35405F2CE8517750200C3
S31580203BC01305450AEF309210F9BFA14763CE8700CF
S31580203BD01B050400EFF0FFDECE85635605061775BC
S31580203BE002001305A509F9BFA947631FF4028D4773
S31580203BF0E316F9EE886881450146EF30320F0125BC
S31580203C00EFF09FCD977502009385C5026356050018
S31580203C10977502009385850217750200130585081E
S31580203C20EF30D20A814765BDB947E3CE87F61B05BB
S31580203C300400EFF01FE4CE85635705001775020058
S31580203C401305450841B7177502001305A504C9BF9A
S31580203C506FF05FDD717122F106F589477D5463131C
S31580203C60F6028866EFF0EFFA634E0500914763C14E
S31580203C70A7041B0405006C082285EFF05FA3635818
S31580203C8005000544AA7022850A744D618280724699
S31580203C900C1022852EE4EFF0FFA9E34405FEF246C0
S31580203CA0A265014705460145EF20C21B0144D9BFC5
S31580203CB01317350097D702009387C762BA978C630C
S31580203CC0A14763C7A70201252EE4EFF0BFD5A265E1
S31580203CD0179602001306868909E5177602001306D1
S31580203CE0E6F1177502001305E5F1EF30227E7DBFE0
S31580203CF0A9476315F500EFF01FC14DBFB947E3C251
S31580203D00A7F801252EE4EFF0BFF4A26517960200EE
S31580203D101306C68509E517760200130626EE177563
S31580203D2002001305A5EFD1B7797122F04EE4B28750
S31580203D3006F426EC4AE852E03684914985451306F6
S31580203D40D002130560061B89070063D7F500186427
S31580203D5083460700638AC60217D7020013070760C7
S31580203D601C438144170A0300033A4A9285271CC3C1
S31580203D707D3963472003A27002744269A269026A70
S31580203D802685E264456182802104834617000507E3
S31580203D9099E2FD374DBF9949E389A6FEFD54E1BFDF
S31580203DA008644E86D2852104EF10227771D185440E
S31580203DB0C1B705476359C704797122F026EC4AE8D2
S31580203DC006F4B687AA8488672E891B04F6FFA10687
S31580203DD0154697D502009385E55836E4EF60503E28
S31580203DE001CD228602741C6DA266A270CA852685A4
S31580203DF04269E26445618287A2700274E264426904
S31580203E007D55456182807D5582801D71A2E886EC34
S31580203E1002F02E8431C18A872AF8130600023E8555
S31580203E200C1802FCEFC0DFBD22879706030083B6FD
S31580203E30E68530108145EF10E23CA277014589CB9B
S31580203E4090678C631785020013054594EF300268CE
S31580203E50E6604664256182802E8601488147014737
S31580203E601410A9451705030003354582EF10827586
S31580203E702A84635BA0000275EF30B0240275EF3090
S31580203E8050631B050400E9B717850200130585904A
S31580203E90EF30C26301456DBF797126EC06F422F0BE
S31580203EA04AE84EE452E08547B28463D1C7049C66D3
S31580203EB01307D00203C60700631EE60003C7170058
S31580203EC0930710066318F700FD34A10681458547C0
S31580203ED06380F4021384860001498549177A02009B
S31580203EE0130A4AE863CE9902CA8415A0A145C5B7AC
S31580203EF00145EFF09FF1AA8519C937060200711690
S31580203F0017750200130585E3EF30425C8144A27069
S31580203F1002744269A269026A2685E26445618280CA
S31580203F2008608145EFF07FEE11E50C60528505290A
S31580203F30EF30C2598529210475B74111B28706E42D
S31580203F40114681459308D00213031006130E60068E
S31580203F50FD37635EF0029866A10603480700630971
S31580203F60180185E1B6853E85EF20C17D15A885455A
S31580203F70034817000507E30D08FCE30A68FE63067D
S31580203F80C801A26041016F60502E1946D5B7F5D978
S31580203F90EDFBB285177502001305C5D7EF20017397
S31580203FA0A2600145410182807571A6FCCAF8D2F0D3
S31580203FB006E5328A22E1CEF4D6ECAA842E8985467D
S31580203FC01307D002130660060334890063D6960051
S31580203FD0834704006381E7029305D0032285EF207F
S31580203FE002630DC5A28517550200130525B2EF3051
S31580203FF0E24D0545B1A02109FD348347140005040F
S31580204000E1D76396C710136A2A00C5BF17D7020067
S315802040101307C7341C4385271CC3894763D597005C
S31580204020833709019DE7528697F5020083B5056699
S315802040302285EF10824E0925759901253335A000FA
S31580204040AA600A64E6744679A679067AE66A4961A0
S3158020405082808949814A93973900CA9788638509DE
S31580204060EF20625C05059B870900BB0A5501E3C4E6
S3158020407097FE5685EF30105FAA89AA8709471305D0
S315802040800002639A0900D68517550200130585AB71
S31580204090EF30C243B9BF93163700CA96946203C6DF
S315802040A00600BE8585062380C70085076DFA05072D
S315802040B02380A5009B060700E3CF96FC6384F90046
S315802040C0A38F07FE8A873E85130600020C1822F8E6
S315802040D04EFCEFC0FF92528797F6020083B6065BAE
S315802040E030108545EF1002124E85EF30903CA27736
S315802040F00145B9F797F7020083B7475D9043A285BC
S3158020410017550200130505A6EF30423CDDB57D55D7
S3158020411005BF85473285B68563D5C70011466FF0C2
S31580204120BFE87D558280797117770200130707696A
S315802041302AE406F42EE802EC3AE003B7810005452E
S315802041401377070809CFAE87130600208A8589C78B
S3158020415083C707000D4591E30945EFF0FFE4A27080
S3158020416045618280397122F8200026F42E86AA8421
S31580204170977502009385852C228506FCEF30422F89
S31580204180A2852685EFF03FFAE2704274A2742161FF
S315802041908280797106F422F026EC4AE84EE452E0D9
S315802041A021E5FD54A27002744269A269026A2685BD
S315802041B0E26445618280834704000504E38447FFE7
S315802041C02689834904004A858524EF208161E384FA
S315802041D0A9FE83470400F1F74A85EF208160930783
S315802041E0D003E301F5FC75BF2A84AE84130AD0037D
S315802041F0C1BF397126F44EEC52E856E45AE006FCEB
S3158020420022F84AF02A8AAE84B28A8149370B020084
S315802042104E85EF20015D19C54E8915A063450400A2
S31580204220634E69017D54E27022854274A2740279BC
S31580204230E269426AA26A026B2161828005294A85E7
S31580204240EF20215A2A8479F9CE855285EFF07FF4A2
S31580204250AA89634405021B890A003B85890063116C
S31580204260240319C0A38F04FE5286D68517750200B3
S315802042701305C54CEF3082257DB79B09190049BFB0
S31580204280EF202156634A05009377F50F2380F400AB
S31580204290D9DB05248504D1B72A8471B71D7186ECB4
S315802042A003B781001377070815CB8A872AF8130668
S315802042B000023E850C1802FCEFC08FF4014797F66A
S315802042C0020083B6A63C30108145EF00B273A277F8
S315802042D091C39C67E6603E85256182801306000235
S315802042E09385810FEFF0FFF08147E355A0FE9387FA
S315802042F0810FCDB7411106E422E02E84EFF01FFA1C
S31580204300A285EFA0810383470400014513F7170098
S3158020431005E7034514005D8D834724005D8D834723
S3158020432034005D8D834744005D8D834754005D8DC9
S315802043301375F50F3335A000A26002644101828097
S315802043405D7126FC24082EE4A685A2E086E42A84D4
S31580204350EFF05FFA15E12266977502009385055383
S315802043602685EF30E210A6852285EFF0DFDBA6607A
S315802043700664E274616182803D55D5BF011122E8D1
S3158020438026E406ECAE843284EFF05FF109C94264FC
S31580204390E2602686A264814505616F302215E2603F
S315802043A022854264A26405618280AA818280F9770F
S315802043B0938787EA3E95419982804111130680151D
S315802043C0814506E422E02A84EFC08FC9228517F32F
S315802043D002000333234102931304041623B081126F
S315802043E0A260026441018280011106ECEF60005DCB
S315802043F0EF1040782AE42800EF60E05201C522655C
S31580204400EF6000562265EF10B001EF60805A178565
S3158020441002001305256FEF2042579307803E330510
S31580204420F5026F2022428280254582804111130524
S31580204430001022E006E40E84EF30D02268F883B79D
S31580204440010F17F702000337674B97F6020083B6F2
S31580204450663F98E303B7010F174600001306C6A0F0
S31580204460014514E703B7010F97F6020083B606339A
S3158020447014EB03B7010F97F6020083B6263E14EF9E
S3158020448003B7010F97F6020083B6C62814F303B745
S31580204490010F97F6020083B6E61E14F783B6010F46
S315802044A017070000130767F898FA83B6010F98FE5E
S315802044B083B6010FB0E283B6010F173600001306CC
S315802044C0867FB0E683B6010F17F602000336863262
S315802044D0B0EA83B6010F17F602000336A628B0EE9F
S315802044E083B6010F17F602000336462DB0F283B647
S315802044F0010F17F6020003366629B0F683B6010F40
S3158020450017F602000336862EB0FA83B6010F17F609
S31580204510020003362637B0FE83B6010F17F6020057
S315802045200336C63AD0E283B6010F17F60200033669
S31580204530E62DD0E683B6010F17F6020003368617DE
S31580204540D0EA83B6010F17F602000336A631D0EEE5
S3158020455083B6010FD8F283B6010FD8F683B6010F42
S31580204560D8FA83B6010FD8FE83B6010FF8E283B658
S31580204570010FF8E683B6010FF8EA03B7010F97F625
S31580204580020083B6261174EF03B7010F97F6020057
S3158020459083B6461174F303B7010F97F6020083B6EC
S315802045A0E60B74F703B7010F97060000938626E77C
S315802045B074FB83B7010F17F7020003372727F8FF0D
S315802045C0A2600264410182801C6123240500232A83
S315802045D0050099C32380070082801C6113871700FA
S315802045E018E103C5070011E17D5582801C6103C552
S315802045F007008280178703001307475383470500E8
S3158020460091E38280BA972380B7000505C5BF17B589
S315802046100200130525326F20726B411106E4EF30BC
S31580204620700401E917B502001305C548EF20126A08
S3158020463001A0A2604101828041111305000206E497
S31580204640EFF0BFFD23200500233405002338050025
S31580204650233C0500A26041018280411106E4EF30AF
S31580204660B05A01E917B5020013054546EF201266B8
S3158020467001A0A26041018280AA8729C10347050043
S3158020468017F602000336861901453297034707003D
S315802046900D8B15C785079305F00503C70700B3065D
S315802046A0E60083C606009D8A81EA6307B700130564
S315802046B037FC1335150082808507C5B70145828072
S315802046C01D7186ECA2E8A6E4CAE04EFC52F856F4A8
S315802046D05AF05EEC62E866E46AE085476313F60A80
S315802046E01784030003340475977402009384040AA4
S315802046F019E0814405A010640C602685EF20125DA8
S31580204700EF30201E1DC5177502001305A5DFEF307B
S31580204710401B8544E66046640669E279427AA27A3D
S31580204720027BE26B426CA26C026D2685A6642561B3
S315802047308280006C75BF93973900D29783BA070021
S3158020474003340B007D5D11EC63177D01D68566856C
S31580204750EF20D257852485099B870900E3CD27FD45
S3158020476055BF0860D685EF10726519E510640C6018
S315802047706285014DEF209255EF30A01649F5006CE9
S31580204780D9B73289368A85498144178B0300130B22
S315802047906B6AFD5B177C0200130C4CFF976C020042
S315802047A0938C4C5C55BF011122E826E406EC4AE046
S315802047B0AE841C454C452A8463C1B7020339050063
S315802047C09B8745065CC59B8555064A85EF30D04339
S315802047D008E001E54A85EF30C04D1C60054591CF44
S315802047E018440145BA97238097001C441B871700DD
S315802047F01C6018C4BA9723800700E2604264A264D2
S31580204800026905618280011122E806EC26E44AE0ED
S315802048101C6104692A8481CB986F19E39C638DCFB0
S315802048209C4085279CC08C401309800288648525FE
S31580204830B3852503EFF07FE29C4088E4B387270386
S31580204840AA9723B0070023B4070023BC070023A020
S31580204850070218541CE0D8D3E2604264A26402693D
S3158020486005618280011106EC22E826E42A84AE8442
S31580204870EFF07FF91C6884CF1C68184CD8CFEFF0F6
S31580204880BFDB1C6888EB08E823300400228542645D
S31580204890E260A26405616FF01FF7397122F826F471
S315802048A006FC4AF04EEC52E856E41C4503B9050056
S315802048B0AA842E8489E75C4999E30145ADA883378C
S315802048C0890189C7EFF0BFD40545B5A08337090094
S315802048D0639D070E1C54898B6389070E97D9020026
S315802048E09389C9B417DA0200130ACAC483B50900AA
S315802048F08860EF10B24C79E583B70901AD83858B4B
S31580204900D5C713050003EFF05FD11C4C31472A89A8
S315802049106385E70019476399E702EFF05FCF4A8501
S31580204920EF302039B5471CCC2685EFF0FFC9084CDF
S315802049304D1513351500E2704274A2740279E2692E
S31580204940426AA26A2161828013060003A285EFC093
S315802049502F8B2338040023300400EFF0FFCD08E4AA
S3158020496008E8233C0400233004022285EFF0BFE9C7
S315802049702330240383A789001CCC83A709015CCC20
S31580204980858BDDD322858545EFF0DFED0339040263
S3158020499018641306000383370900CA85228598EF99
S315802049A0EFC00F864A85EF30C030BDBF1C4C81CB0F
S315802049B003A789005C4CBBD7E740858BC5FFEFF00A
S315802049C01FC58DB7E109E39349F39C60054593069E
S315802049D0C00581C703C707001DEFEF30A048AA890D
S315802049E00545E38A09F40335090019E123280900DE
S315802049F0032A09019B071A00092A931A3A002328B9
S31580204A00F900D685EF3050202330A90019E94E854C
S31580204A10EF30202A55BD6313D700850705258507E6
S31580204A204DBF033589000A0AD285EF30F01D233425
S31580204A30A90071DD833709009306C005D69723B870
S31580204A4037FF83378900D848D29723ACE7FE833552
S31580204A500900D69523BC05FE83378900D29723AEDD
S31580204A6007FE9C6081C703C707001DE323800900DA
S31580204A702685EFF07FB5184C9947E310F7E4A28599
S31580204A802685EFF09FE185452285EFF0BFDD35B5A0
S31580204A906313D700850703C7070085098507A38F7A
S31580204AA0E9FEC9B7797122F052E006F426EC4AE88D
S31580204AB04EE42A84130A800235ECA2700274E264E2
S31580204AC04269A269026A45618280B3044903AA9435
S31580204AD09C60A1CF814901A8939739003E950861B2
S31580204AE08509EF30001D98489B8709008860E3C5BB
S31580204AF0E7FEEF30001C8864EF30A01B23A804005B
S31580204B0023B00400050918409B0709000864E3CEFA
S31580204B10E7FAEF30001A04682334040023380400AF
S31580204B202285EF300019268441BF886C61DDEFF045
S31580204B307FF7C9BF0149C1BF1D71A2E886ECA6E4F3
S31580204B40CAE04EFC52F856F45AF05EEC62E866E40F
S31580204B501C612A8481C703C7070069E78549977A3C
S31580204B600200938AAA48177B0200130B2B4997F4DD
S31580204B70020083B4A4AD978B0300938BABF917897E
S31580204B8003001309A90A178A0300130AEAF8B5A8AD
S31580204B905C44232434015685638337015A85EF206C
S31580204BA05038FD576318F5009787030023A607F62C
S31580204BB0232404002685EF1012270125B387A4001D
S31580204BC0294705252380E700269523000500EF2029
S31580204BD0305609C59787030023A007F4EF20F055A8
S31580204BE09787030023A807F25C446399370703C796
S31580204BF00400A947631AF70483270A00A9EFA6852C
S31580204C004A85EF10721423302401086051D1EF10A9
S31580204C1092213DDD89475CC41C60014589CB03C751
S31580204C20070011C71387170018E003C50700E66041
S31580204C304664A6640669E279427AA27A027BE26BAE
S31580204C40426CA26C25618280A6854A85EF10D20FA0
S31580204C5023203A014DBF23A03B0175B783C70400AB
S31580204C60A94C6382970517850300130525FCEF1051
S31580204C70921B2A8C2685EF10121B2A9C9307F01FE5
S31580204C8063EA87034A85EF10121A9B07F5FF1B07F5
S31580204C900500CA97930600022380D700A685330590
S31580204CA0E900EF10720A1C4481E7A9472310F90016
S31580204CB004E0A1BF231099019787030023AE07E460
S31580204CC0DDB7011122E826E406EC2A84AE8409EABF
S31580204CD022854264E260A685A26405616FF0BFAC3E
S31580204CE01745020013050524EF10721275D193051E
S31580204CF0C0052285EFF03FAB61DDE2604264A264AD
S31580204D00056182801C6103C50700828019E1014507
S31580204D108280011122E806EC26E4034705009307EA
S31580204D2040022A84631FF7020347150097870300F2
S31580204D30238E07DA9307F003631AF7021786030098
S31580204D40032646DE978502009385C5941785030042
S31580204D501305C5D9EF20C27117850300130505D920
S31580204D6039A09784030083B4E40C99E40145E2607A
S31580204D704264A264056182808860A285EF10120455
S31580204D8019E18864EDB7846CCDB7397106FC22F8B9
S31580204D9026F44AF04EEC52E856E40347050097F78E
S31580204DA0020083B7A7A7BA9783C707008D8B85C3D1
S31580204DB0AE89EF10F20C9305D0032A89EF103205C5
S31580204DC001C58347150091E74A85EF20906EFD54F3
S31580204DD0A9A8978A0300938AEA0503B40A00130ACE
S31580204DE01500230005000DE013050002EF30800733
S31580204DF02A84FD5405C94A85EF10920808E025E1EA
S31580204E002285EF20106B39A80860CA85EF10027BB7
S31580204E1035C9006CC9BF8544635630010448ADE06E
S31580204E20232834014A85EF20D068E27042740279C3
S31580204E30E269426AA26A2685A274216182806346DB
S31580204E4030011848854763D4E70085471CC8086425
S31580204E50EF2030665285EF10B20208E4E1B7528522
S31580204E6083B40A00EF10D20108E4233C04002328EF
S31580204E703401232A0400A687846CF5FC80EF5DB775
S31580204E8085444DB70864D285EF10427349D544488E
S31580204E90DDD4CA8517950200130545E3EF2002630A
S31580204EA0FD5449B71971A2F8A6F4CAF0CEECDAE01F
S31580204EB066F46EEC86FCD2E8D6E45EFC62F86AF094
S31580204EC02A892E8B014481498144914C978D0200F9
S31580204ED0938DCDB68D454A85EF1062732A8A39E93E
S31580204EE0638809024A85EF1002749B851400AA956F
S31580204EF02285EFF08FF62A84CA852695EF10C26424
S31580204F0093040002A9452285EF1062706314051868
S31580204F1011E04A84E67022854674A6740679E6698D
S31580204F20466AA66A066BE27B427CA27C027DE26DA3
S31580204F3009618280630249033B062A41BB89C400FA
S31580204F40CE85228532E4EFF04FF122662A84CA8507
S31580204F502695EF108260CE84050A8D455285EF1006
S31580204F60026B230005002A899305A0035285EF1042
S31580204F70026AAA8A4DED814B014C81495285EFF018
S31580204F80EFB12A8D6313050E5285EFF03FD82A8D17
S31580204F90631D050C630B0C025285EF10C268AA8B29
S31580204FA04E85EF1042685E950905EF20B06BAA8B7F
S31580204FB011C9EE85CE865286EF20824B81455E854D
S31580204FC0EFF0BFDC5E85EF20D04E63860A00930724
S31580204FD0A0032380FA00268A638409041B8A04009E
S31580204FE04E8563010B0AEF100264092A3B0A4501AC
S31580204FF09B051A002285EFF04FE62A84B30A950096
S3158020500063050B088504AA94CE852685EF10C253A6
S315802050104E8523809A01EF100261AA942380940101
S315802050208D472300F900D2840509854965B58347D4
S315802050301500230005001307D0026397E700930924
S315802050402500814B014C1DBF1307D003638AE700DF
S315802050501307B002E391E7F293092500854BDDB76C
S3158020506093092500814B054C11BF6A85EF10A25B01
S31580205070E30205F263830B026A85EF10C25AB309F5
S31580205080AD00A1B7EF10225A95B7CE855685EF1081
S31580205090A24B79B723009500B5B5EA89E3990AF240
S315802050A035BF1D71A2E886ECA6E4CAE04EFC52F814
S315802050B056F405443DC583470500AA840144B5C3FB
S315802050C0AE89A945EF10A25497FAFFFF938A4A52D8
S315802050D017FAFFFF130AAA500A8401C583471500D1
S315802050E0B9CB2685EF1022540905EFF00FD3A6857C
S315802050F02A89EF106245974502009385A5654A85E2
S31580205100EF1062478547821785072285CE8556EC24
S3158020511052E83EE44AE0EF0040542A844A85EF2054
S315802051205039E66022854664A6640669E279427A29
S31580205130A27A256182808547821785072285CE853A
S3158020514056EC52E83EE426E0EF0020512A84D1BF77
S31580205150717122F106F526ED4AE94EE552E1D6FC3B
S31580205160DAF8DEF4E2F0E6ECEAE8EEE42A84AA87CE
S3158020517031471946A1EF02E402F0014902EC2D4B9A
S31580205180014D814C02E88549814A014A61C05C4CC7
S315802051900947E937636CF700EF20A074EF20407948
S315802051A02AE831E1A26799E3014A22E4444C631D4F
S315802051B09B04638B090483298401FD19B33930014B
S315802051C0C267639A07480068268BC9B7D44F9C6B01
S315802051D06384E600E390C6FA89EBEFF04FC39787A6
S315802051E0030023AB0792854A95A06399E600D44FA6
S315802051F0E392E6F894679462B5DEC5B7E39CC6F67B
S31580205200D44FE389E6F6D1BF8947638AF400914774
S31580205210639CF400EA8C63120D02814C25A0814C9C
S31580205220630D0D00EA8C39A88D47638FF40099476A
S31580205230638EF402B1476387F400A5476390F41A1E
S3158020524063160A16AD44A1AC63920C16AA700A7432
S31580205250EA644A69AA690A6A467BA67B067CE66C6A
S31580205260466DA66D5685E67A4D6182801C40638F99
S315802052700712631A09041C689C6703B90700E303B5
S3158020528009FC1C644A8C014A9C639C633E853EECE7
S31580205290EF1062399B07050021453EF0EFF0EFB70E
S315802052A082772A8989273ED403350C0029E10E0A84
S315802052B04A9A23300A001C644AF0054A9C63986304
S315802052C023B007003AEC1864833709001863086313
S315802052D0F1E7EF20101E02750149AD44EF20701DC5
S315802052E01C64626785499C63014A98E3D1BD8145E8
S315802052F0EFF05FBB2A8BAA8B03C70B0011EB83379A
S315802053000C00638567015A85EF20B01A210C69BF8E
S31580205310930700026314F700850BF9BF93050002FB
S315802053205E85EF10C22E2A8735C1BB0D75419B093C
S315802053302A008E09CE854A853AF8EFF00FB2A25719
S31580205340C119AA992A893B85B701EFF00FADE2658D
S3158020535023B0A900052AEF10221F03B509009795CF
S3158020536002009385A528EF10022103B509006E86D9
S31580205370DE85EF100222827703B5090042773B86CD
S31580205380B7012A96A3000600BA8BBDB75E85EF10BB
S3158020539082299B0D05003387BB0151BFEF207011F9
S315802053A01C640337090021099C6398E31C40E38B26
S315802053B007E8177703001307E7751843FD5A3AF471
S315802053C005476396E70A833B840083B98B01638014
S315802053D009024E85EFF0DFD7AA8A59A2A947E3971B
S315802053E0F4FC63140A0002E4D1B752E8C1B783BD46
S315802053F00B00638E0D06014B13173B006E97033C03
S3158020540007009B060B0036F86285EFF0EFA6C27682
S31580205410AA8A050B75F199C263050C08814D65A88A
S31580205420EF1002269305D0032A8BEF10421E19C156
S31580205430230005005A85EF20D00703B70B0081454E
S315802054404E970863EFF01FA681452A8BEFF0FF93D6
S3158020545003B70B004E971863630567015A85EF20C3
S315802054605005A10903B70B004E97086355F9977726
S3158020547003009387276B3337500198C3854693F76C
S31580205480D4FF6388D71C9D47639FF41A13BA1A00EA
S315802054901C4C0D4763830A000947E395E7DA854963
S315802054A005B38149C1B73A858145EFF0BF9F8145D4
S315802054B0AA8AEFF09F8D03B70B003A9B03370B0028
S315802054C0630A570103A70B0256857D3723A0EB027B
S315802054D0EF20207E850D83BA0B00139B3D009B8792
S315802054E00D00DA9A03B70A003EF83A853AFCEFF0C7
S315802054F0AF9862772A8C45F983A60B0263830610C0
